{
  "contractName": "CampaignFactory",
  "abi": [
    {
      "inputs": [
        {
          "internalType": "uint256",
          "name": "",
          "type": "uint256"
        }
      ],
      "name": "deployedCampaigns",
      "outputs": [
        {
          "internalType": "contract Campaign",
          "name": "",
          "type": "address"
        }
      ],
      "stateMutability": "view",
      "type": "function"
    },
    {
      "inputs": [
        {
          "internalType": "uint256",
          "name": "minimum",
          "type": "uint256"
        },
        {
          "internalType": "string",
          "name": "description",
          "type": "string"
        }
      ],
      "name": "createCampaign",
      "outputs": [],
      "stateMutability": "nonpayable",
      "type": "function"
    },
    {
      "inputs": [],
      "name": "getDeployedCampaigns",
      "outputs": [
        {
          "internalType": "contract Campaign[]",
          "name": "",
          "type": "address[]"
        }
      ],
      "stateMutability": "view",
      "type": "function"
    }
  ],
  "bytecode": "0x608060405234801561001057600080fd5b5061215f806100206000396000f3fe60806040523480156200001157600080fd5b5060043610620000465760003560e01c8063339d50a5146200004b5780634220d65614620000815780634acb9d4f14620000a1575b600080fd5b620000696004803603810190620000639190620002d3565b620000c3565b60405162000078919062000486565b60405180910390f35b6200009f6004803603810190620000999190620002ff565b62000103565b005b620000ab620001ac565b604051620000ba919062000462565b60405180910390f35b60008181548110620000d457600080fd5b906000526020600020016000915054906101000a900473ffffffffffffffffffffffffffffffffffffffff1681565b600082823360405162000116906200023c565b6200012493929190620004a3565b604051809103906000f08015801562000141573d6000803e3d6000fd5b5090506000819080600181540180825580915050600190039060005260206000200160009091909190916101000a81548173ffffffffffffffffffffffffffffffffffffffff021916908373ffffffffffffffffffffffffffffffffffffffff160217905550505050565b606060008054806020026020016040519081016040528092919081815260200182805480156200023257602002820191906000526020600020905b8160009054906101000a900473ffffffffffffffffffffffffffffffffffffffff1673ffffffffffffffffffffffffffffffffffffffff1681526020019060010190808311620001e7575b5050505050905090565b611a8180620006a983390190565b6000620002616200025b846200051b565b620004e7565b9050828152602081018484840111156200027a57600080fd5b6200028784828562000609565b509392505050565b600082601f830112620002a157600080fd5b8135620002b38482602086016200024a565b91505092915050565b600081359050620002cd816200068e565b92915050565b600060208284031215620002e657600080fd5b6000620002f684828501620002bc565b91505092915050565b600080604083850312156200031357600080fd5b60006200032385828601620002bc565b925050602083013567ffffffffffffffff8111156200034157600080fd5b6200034f858286016200028f565b9150509250929050565b6000620003678383620003ee565b60208301905092915050565b6200037e81620005a3565b82525050565b600062000391826200055e565b6200039d818562000581565b9350620003aa836200054e565b8060005b83811015620003e1578151620003c5888262000359565b9750620003d28362000574565b925050600181019050620003ae565b5085935050505092915050565b620003f981620005e1565b82525050565b6200040a81620005e1565b82525050565b60006200041d8262000569565b62000429818562000592565b93506200043b81856020860162000618565b62000446816200067d565b840191505092915050565b6200045c81620005d7565b82525050565b600060208201905081810360008301526200047e818462000384565b905092915050565b60006020820190506200049d6000830184620003ff565b92915050565b6000606082019050620004ba600083018662000451565b8181036020830152620004ce818562000410565b9050620004df604083018462000373565b949350505050565b6000604051905081810181811067ffffffffffffffff821117156200051157620005106200064e565b5b8060405250919050565b600067ffffffffffffffff8211156200053957620005386200064e565b5b601f19601f8301169050602081019050919050565b6000819050602082019050919050565b600081519050919050565b600081519050919050565b6000602082019050919050565b600082825260208201905092915050565b600082825260208201905092915050565b6000620005b082620005b7565b9050919050565b600073ffffffffffffffffffffffffffffffffffffffff82169050919050565b6000819050919050565b6000620005ee82620005f5565b9050919050565b60006200060282620005b7565b9050919050565b82818337600083830152505050565b60005b83811015620006385780820151818401526020810190506200061b565b8381111562000648576000848401525b50505050565b7f4e487b7100000000000000000000000000000000000000000000000000000000600052604160045260246000fd5b6000601f19601f8301169050919050565b6200069981620005d7565b8114620006a557600080fd5b5056fe60806040523480156200001157600080fd5b5060405162001a8138038062001a818339818101604052810190620000379190620001f0565b806000806101000a81548173ffffffffffffffffffffffffffffffffffffffff021916908373ffffffffffffffffffffffffffffffffffffffff16021790555082600181905550816002908051906020019062000096929190620000a0565b5050505062000402565b828054620000ae906200033a565b90600052602060002090601f016020900481019282620000d257600085556200011e565b82601f10620000ed57805160ff19168380011785556200011e565b828001600101855582156200011e579182015b828111156200011d57825182559160200191906001019062000100565b5b5090506200012d919062000131565b5090565b5b808211156200014c57600081600090555060010162000132565b5090565b600062000167620001618462000293565b6200025f565b9050828152602081018484840111156200018057600080fd5b6200018d84828562000304565b509392505050565b600081519050620001a681620003ce565b92915050565b600082601f830112620001be57600080fd5b8151620001d084826020860162000150565b91505092915050565b600081519050620001ea81620003e8565b92915050565b6000806000606084860312156200020657600080fd5b60006200021686828701620001d9565b935050602084015167ffffffffffffffff8111156200023457600080fd5b6200024286828701620001ac565b9250506040620002558682870162000195565b9150509250925092565b6000604051905081810181811067ffffffffffffffff821117156200028957620002886200039f565b5b8060405250919050565b600067ffffffffffffffff821115620002b157620002b06200039f565b5b601f19601f8301169050602081019050919050565b6000620002d382620002da565b9050919050565b600073ffffffffffffffffffffffffffffffffffffffff82169050919050565b6000819050919050565b60005b838110156200032457808201518184015260208101905062000307565b8381111562000334576000848401525b50505050565b600060028204905060018216806200035357607f821691505b602082108114156200036a576200036962000370565b5b50919050565b7f4e487b7100000000000000000000000000000000000000000000000000000000600052602260045260246000fd5b7f4e487b7100000000000000000000000000000000000000000000000000000000600052604160045260246000fd5b620003d981620002c6565b8114620003e557600080fd5b50565b620003f381620002fa565b8114620003ff57600080fd5b50565b61166f80620004126000396000f3fe6080604052600436106100c25760003560e01c80635badbe4c1161007f5780638a9cfd55116100595780638a9cfd5514610275578063937e09b11461029e578063d7bb99ba146102c9578063d7d1bbdb146102d3576100c2565b80635badbe4c146101de57806381d12c581461020957806382fde0931461024a576100c2565b806303441006146100c75780630a144391146100f0578063110842cb1461012d5780633410452a146101585780634051ddac14610183578063481c6a75146101b3575b600080fd5b3480156100d357600080fd5b506100ee60048036038101906100e99190610dfa565b6102fc565b005b3480156100fc57600080fd5b5061011760048036038101906101129190610d6a565b61050e565b60405161012491906110dd565b60405180910390f35b34801561013957600080fd5b5061014261052e565b60405161014f91906110f8565b60405180910390f35b34801561016457600080fd5b5061016d6105bc565b60405161017a9190611234565b60405180910390f35b34801561018f57600080fd5b506101986105c6565b6040516101aa969594939291906112c4565b60405180910390f35b3480156101bf57600080fd5b506101c861069d565b6040516101d59190611099565b60405180910390f35b3480156101ea57600080fd5b506101f36106c1565b6040516102009190611234565b60405180910390f35b34801561021557600080fd5b50610230600480360381019061022b9190610dfa565b6106c7565b60405161024195949392919061111a565b60405180910390f35b34801561025657600080fd5b5061025f6107b2565b60405161026c9190611234565b60405180910390f35b34801561028157600080fd5b5061029c60048036038101906102979190610d93565b6107b8565b005b3480156102aa57600080fd5b506102b3610948565b6040516102c09190611234565b60405180910390f35b6102d161094e565b005b3480156102df57600080fd5b506102fa60048036038101906102f59190610dfa565b610a3d565b005b60008054906101000a900473ffffffffffffffffffffffffffffffffffffffff1673ffffffffffffffffffffffffffffffffffffffff163373ffffffffffffffffffffffffffffffffffffffff161461038a576040517f08c379a0000000000000000000000000000000000000000000000000000000008152600401610381906111f4565b60405180910390fd5b600060066000838152602001908152602001600020905060026003546103b091906113a9565b8160030154116103f5576040517f08c379a00000000000000000000000000000000000000000000000000000000081526004016103ec90611174565b60405180910390fd5b8060020160149054906101000a900460ff1615610447576040517f08c379a000000000000000000000000000000000000000000000000000000000815260040161043e90611194565b60405180910390fd5b8060020160009054906101000a900473ffffffffffffffffffffffffffffffffffffffff1673ffffffffffffffffffffffffffffffffffffffff166108fc82600101549081150290604051600060405180830381858888f193505050501580156104b5573d6000803e3d6000fd5b5060018160020160146101000a81548160ff0219169083151502179055507f5f737e695a47d9dd61a69c097b680eb2d154fd3a73ddf8e06ae201447c593395826040516105029190611234565b60405180910390a15050565b60056020528060005260406000206000915054906101000a900460ff1681565b6002805461053b906114ac565b80601f0160208091040260200160405190810160405280929190818152602001828054610567906114ac565b80156105b45780601f10610589576101008083540402835291602001916105b4565b820191906000526020600020905b81548152906001019060200180831161059757829003601f168201915b505050505081565b6000600454905090565b600080600080600060606001544760045460035460008054906101000a900473ffffffffffffffffffffffffffffffffffffffff166002808054610609906114ac565b80601f0160208091040260200160405190810160405280929190818152602001828054610635906114ac565b80156106825780601f1061065757610100808354040283529160200191610682565b820191906000526020600020905b81548152906001019060200180831161066557829003601f168201915b50505050509050955095509550955095509550909192939495565b60008054906101000a900473ffffffffffffffffffffffffffffffffffffffff1681565b60045481565b60066020528060005260406000206000915090508060000180546106ea906114ac565b80601f0160208091040260200160405190810160405280929190818152602001828054610716906114ac565b80156107635780601f1061073857610100808354040283529160200191610763565b820191906000526020600020905b81548152906001019060200180831161074657829003601f168201915b5050505050908060010154908060020160009054906101000a900473ffffffffffffffffffffffffffffffffffffffff16908060020160149054906101000a900460ff16908060030154905085565b60035481565b60008054906101000a900473ffffffffffffffffffffffffffffffffffffffff1673ffffffffffffffffffffffffffffffffffffffff163373ffffffffffffffffffffffffffffffffffffffff1614610846576040517f08c379a000000000000000000000000000000000000000000000000000000000815260040161083d906111f4565b60405180910390fd5b6000600660006004548152602001908152602001600020905060046000815480929190610872906114de565b91905055508381600001908051906020019061088f929190610c20565b50818160020160006101000a81548173ffffffffffffffffffffffffffffffffffffffff021916908373ffffffffffffffffffffffffffffffffffffffff16021790555082816001018190555060008160020160146101000a81548160ff021916908315150217905550600081600301819055507ff7365309cb3a1c4835d32acd2153ebf718723e270daad5bb2aac6dd47564583b60045485858560405161093a9493929190611278565b60405180910390a150505050565b60015481565b6001543411610992576040517f08c379a000000000000000000000000000000000000000000000000000000000815260040161098990611214565b60405180910390fd5b6001600560003373ffffffffffffffffffffffffffffffffffffffff1673ffffffffffffffffffffffffffffffffffffffff16815260200190815260200160002060006101000a81548160ff021916908315150217905550600360008154809291906109fd906114de565b91905055507f4d154d4aae216bed6d0926db77c00df2b57c6b5ba4eee05775de20facede3a7b3334604051610a339291906110b4565b60405180910390a1565b6000600660008381526020019081526020016000209050600560003373ffffffffffffffffffffffffffffffffffffffff1673ffffffffffffffffffffffffffffffffffffffff16815260200190815260200160002060009054906101000a900460ff16610ae0576040517f08c379a0000000000000000000000000000000000000000000000000000000008152600401610ad7906111d4565b60405180910390fd5b8060040160003373ffffffffffffffffffffffffffffffffffffffff1673ffffffffffffffffffffffffffffffffffffffff16815260200190815260200160002060009054906101000a900460ff1615610b6f576040517f08c379a0000000000000000000000000000000000000000000000000000000008152600401610b66906111b4565b60405180910390fd5b60018160040160003373ffffffffffffffffffffffffffffffffffffffff1673ffffffffffffffffffffffffffffffffffffffff16815260200190815260200160002060006101000a81548160ff021916908315150217905550806003016000815480929190610bde906114de565b91905055507ff3dc904660a0ea05aba8dfa1e21fbc4fb2914be2a3029da7b0fdd3e5eee20ddb8233604051610c1492919061124f565b60405180910390a15050565b828054610c2c906114ac565b90600052602060002090601f016020900481019282610c4e5760008555610c95565b82601f10610c6757805160ff1916838001178555610c95565b82800160010185558215610c95579182015b82811115610c94578251825591602001919060010190610c79565b5b509050610ca29190610ca6565b5090565b5b80821115610cbf576000816000905550600101610ca7565b5090565b6000610cd6610cd18461135d565b61132c565b905082815260208101848484011115610cee57600080fd5b610cf984828561146a565b509392505050565b600081359050610d10816115f4565b92915050565b600081359050610d258161160b565b92915050565b600082601f830112610d3c57600080fd5b8135610d4c848260208601610cc3565b91505092915050565b600081359050610d6481611622565b92915050565b600060208284031215610d7c57600080fd5b6000610d8a84828501610d01565b91505092915050565b600080600060608486031215610da857600080fd5b600084013567ffffffffffffffff811115610dc257600080fd5b610dce86828701610d2b565b9350506020610ddf86828701610d55565b9250506040610df086828701610d16565b9150509250925092565b600060208284031215610e0c57600080fd5b6000610e1a84828501610d55565b91505092915050565b610e2c81611434565b82525050565b610e3b816113ec565b82525050565b610e4a816113da565b82525050565b610e59816113fe565b82525050565b6000610e6a8261138d565b610e748185611398565b9350610e84818560208601611479565b610e8d816115e3565b840191505092915050565b6000610ea5603c83611398565b91507f4174206c6561737420353025206f662074686520636f6e7472696275746f727360008301527f206e65656420746f20617070726f7665207468652072657175657374000000006020830152604082019050919050565b6000610f0b602683611398565b91507f54686520726571756573742068617320616c7265616479206265656e20636f6d60008301527f706c6574656400000000000000000000000000000000000000000000000000006020830152604082019050919050565b6000610f71602383611398565b91507f596f7527766520616c726561647920617070726f76656420746865207265717560008301527f65737400000000000000000000000000000000000000000000000000000000006020830152604082019050919050565b6000610fd7601a83611398565b91507f596f75277265206e6f742074686520636f6e7472696275746f720000000000006000830152602082019050919050565b6000611017601f83611398565b91507f52657374726963746564206163636573732c206d616e61676572206f6e6c79006000830152602082019050919050565b6000611057600e83611398565b91507f416d6f756e7420746f6f206c6f770000000000000000000000000000000000006000830152602082019050919050565b6110938161142a565b82525050565b60006020820190506110ae6000830184610e41565b92915050565b60006040820190506110c96000830185610e41565b6110d6602083018461108a565b9392505050565b60006020820190506110f26000830184610e50565b92915050565b600060208201905081810360008301526111128184610e5f565b905092915050565b600060a08201905081810360008301526111348188610e5f565b9050611143602083018761108a565b6111506040830186610e32565b61115d6060830185610e50565b61116a608083018461108a565b9695505050505050565b6000602082019050818103600083015261118d81610e98565b9050919050565b600060208201905081810360008301526111ad81610efe565b9050919050565b600060208201905081810360008301526111cd81610f64565b9050919050565b600060208201905081810360008301526111ed81610fca565b9050919050565b6000602082019050818103600083015261120d8161100a565b9050919050565b6000602082019050818103600083015261122d8161104a565b9050919050565b6000602082019050611249600083018461108a565b92915050565b6000604082019050611264600083018561108a565b6112716020830184610e41565b9392505050565b600060808201905061128d600083018761108a565b818103602083015261129f8186610e5f565b90506112ae604083018561108a565b6112bb6060830184610e23565b95945050505050565b600060c0820190506112d9600083018961108a565b6112e6602083018861108a565b6112f3604083018761108a565b611300606083018661108a565b61130d6080830185610e41565b81810360a083015261131f8184610e5f565b9050979650505050505050565b6000604051905081810181811067ffffffffffffffff82111715611353576113526115b4565b5b8060405250919050565b600067ffffffffffffffff821115611378576113776115b4565b5b601f19601f8301169050602081019050919050565b600081519050919050565b600082825260208201905092915050565b60006113b48261142a565b91506113bf8361142a565b9250826113cf576113ce611556565b5b828204905092915050565b60006113e58261140a565b9050919050565b60006113f78261140a565b9050919050565b60008115159050919050565b600073ffffffffffffffffffffffffffffffffffffffff82169050919050565b6000819050919050565b600061143f82611446565b9050919050565b600061145182611458565b9050919050565b60006114638261140a565b9050919050565b82818337600083830152505050565b60005b8381101561149757808201518184015260208101905061147c565b838111156114a6576000848401525b50505050565b600060028204905060018216806114c457607f821691505b602082108114156114d8576114d7611585565b5b50919050565b60006114e98261142a565b91507fffffffffffffffffffffffffffffffffffffffffffffffffffffffffffffffff82141561151c5761151b611527565b5b600182019050919050565b7f4e487b7100000000000000000000000000000000000000000000000000000000600052601160045260246000fd5b7f4e487b7100000000000000000000000000000000000000000000000000000000600052601260045260246000fd5b7f4e487b7100000000000000000000000000000000000000000000000000000000600052602260045260246000fd5b7f4e487b7100000000000000000000000000000000000000000000000000000000600052604160045260246000fd5b6000601f19601f8301169050919050565b6115fd816113da565b811461160857600080fd5b50565b611614816113ec565b811461161f57600080fd5b50565b61162b8161142a565b811461163657600080fd5b5056fea2646970667358221220852bb950d6f9534abc90cc6a3669b62f37a4f8fdeae91910e13eb1ecae497da664736f6c63430008000033a26469706673582212209971b3678e16531f93ee53b674f36eda3f398df0f2b4c8a6c1011512c963dd5164736f6c63430008000033",
  "immutableReferences": {},
  "source": "//SPDX-License-Identifier: GPL-3.0\r\n\r\npragma solidity ^0.8.0;\r\n\r\n\r\ncontract CampaignFactory {\r\n    \r\n    Campaign[] public deployedCampaigns;\r\n\r\n    function createCampaign(uint256 minimum, string memory description) public {\r\n        Campaign newCampaign = new Campaign(minimum, description, msg.sender);\r\n\r\n        deployedCampaigns.push(newCampaign);\r\n    }\r\n\r\n    function getDeployedCampaigns() public view returns (Campaign[] memory) {\r\n        return deployedCampaigns;\r\n    }\r\n}\r\n\r\ncontract Campaign {\r\n    \r\n    address public manager;\r\n    uint256 public minimumContribution;\r\n    string public campaignDescription;\r\n    uint256 public approversCount;\r\n    uint public requestCount;\r\n    \r\n    mapping(address => bool) public approvers;\r\n    mapping(uint => Request) public requests;\r\n    \r\n    struct Request {\r\n        string description;\r\n        uint256 value;\r\n        address payable recipient;\r\n        bool isCompleted;\r\n        uint256 approvalCount;\r\n        mapping(address => bool) approvals;\r\n    }\r\n    \r\n    event Contribution(address _sender, uint _value);\r\n    event RequestCreated(uint _id, string _description, uint _value, address _recipient);\r\n    event RequestApproved(uint _id, address _sender);\r\n    event RequestFinalized(uint _id);\r\n\r\n    modifier restricted() {\r\n        require(msg.sender == manager, \"Restricted access, manager only\");\r\n        _;\r\n    }\r\n\r\n    constructor(uint256 _minimum, string memory _description, address _creator) {\r\n        manager = _creator;\r\n        minimumContribution = _minimum;\r\n        campaignDescription = _description;\r\n    }\r\n\r\n    function contribute() public payable {\r\n        require(msg.value > minimumContribution, \"Amount too low\");\r\n\r\n        approvers[msg.sender] = true;\r\n        approversCount++;\r\n        \r\n        emit Contribution(msg.sender, msg.value);\r\n    }\r\n\r\n    function createRequest(\r\n        string memory _description,\r\n        uint256 _value,\r\n        address payable _recipient\r\n    ) public restricted {\r\n        Request storage newRequest = requests[requestCount];\r\n        requestCount++;\r\n        \r\n        newRequest.description = _description;\r\n        newRequest.recipient = _recipient;\r\n        newRequest.value = _value;\r\n        newRequest.isCompleted = false;\r\n        newRequest.approvalCount = 0;\r\n        \r\n        emit RequestCreated(requestCount, _description, _value, _recipient );\r\n    }\r\n\r\n    function approveRequest(uint256 _index) public {\r\n        Request storage request = requests[_index];\r\n\r\n        require(approvers[msg.sender], \"You're not the contributor\");\r\n        require(!request.approvals[msg.sender], \"You've already approved the request\");\r\n\r\n        request.approvals[msg.sender] = true;\r\n        request.approvalCount++;\r\n        \r\n        emit RequestApproved(_index, msg.sender );\r\n    }\r\n\r\n    function finalizeRequest(uint256 _index) public restricted {\r\n        Request storage request = requests[_index];\r\n\r\n        require(request.approvalCount > (approversCount / 2), \"At least 50% of the contributors need to approve the request\");\r\n        require(!request.isCompleted, \"The request has already been completed\");\r\n\r\n        request.recipient.transfer(request.value);\r\n        request.isCompleted = true;\r\n        \r\n        emit RequestFinalized(_index);\r\n    }\r\n\r\n    function getSummary()\r\n        public\r\n        view\r\n        returns (\r\n            uint256,\r\n            uint256,\r\n            uint256,\r\n            uint256,\r\n            address,\r\n            string memory\r\n        )\r\n    {\r\n        return (\r\n            minimumContribution,\r\n            address(this).balance,\r\n            requestCount,\r\n            approversCount,\r\n            manager,\r\n            campaignDescription\r\n        );\r\n    }\r\n\r\n    function getRequestsCount() public view returns (uint256) {\r\n        return requestCount;\r\n    }\r\n}\r\n",
  "sourcePath": "C:/Users/zrinc/Projects/kickstart/contracts/Campaign.sol",
  "compiler": {
    "name": "solc",
    "version": "0.8.0+commit.c7dfd78e.Emscripten.clang"
  },
  "schemaVersion": "3.4.1",
  "updatedAt": "2021-11-11T01:09:59.291Z",
  "devdoc": {
    "kind": "dev",
    "methods": {},
    "version": 1
  },
  "userdoc": {
    "kind": "user",
    "methods": {},
    "version": 1
  }
}